{
  "contractName": "ProjectCreator",
  "abi": [
    {
      "inputs": [
        {
          "internalType": "address",
          "name": "_repToken",
          "type": "address"
        }
      ],
      "stateMutability": "nonpayable",
      "type": "constructor"
    },
    {
      "anonymous": false,
      "inputs": [
        {
          "indexed": false,
          "internalType": "string[]",
          "name": "names",
          "type": "string[]"
        },
        {
          "indexed": false,
          "internalType": "string[]",
          "name": "desc",
          "type": "string[]"
        },
        {
          "indexed": false,
          "internalType": "uint256[]",
          "name": "limits",
          "type": "uint256[]"
        },
        {
          "indexed": false,
          "internalType": "address[]",
          "name": "owners",
          "type": "address[]"
        }
      ],
      "name": "ViewAllProjects",
      "type": "event"
    },
    {
      "anonymous": false,
      "inputs": [
        {
          "indexed": false,
          "internalType": "string[]",
          "name": "_purpose",
          "type": "string[]"
        },
        {
          "indexed": false,
          "internalType": "uint256[]",
          "name": "_value",
          "type": "uint256[]"
        },
        {
          "indexed": false,
          "internalType": "string[]",
          "name": "_proofLink",
          "type": "string[]"
        },
        {
          "indexed": false,
          "internalType": "address",
          "name": "_admin",
          "type": "address"
        },
        {
          "indexed": false,
          "internalType": "bool[]",
          "name": "_verified",
          "type": "bool[]"
        },
        {
          "indexed": false,
          "internalType": "uint256[]",
          "name": "_transactionIndex",
          "type": "uint256[]"
        }
      ],
      "name": "ViewAllTransactions",
      "type": "event"
    },
    {
      "anonymous": false,
      "inputs": [
        {
          "indexed": false,
          "internalType": "string",
          "name": "name",
          "type": "string"
        },
        {
          "indexed": false,
          "internalType": "string",
          "name": "desc",
          "type": "string"
        },
        {
          "indexed": false,
          "internalType": "uint256",
          "name": "value",
          "type": "uint256"
        },
        {
          "indexed": false,
          "internalType": "address",
          "name": "admin",
          "type": "address"
        }
      ],
      "name": "ViewProject",
      "type": "event"
    },
    {
      "anonymous": false,
      "inputs": [
        {
          "indexed": false,
          "internalType": "string",
          "name": "purpose",
          "type": "string"
        },
        {
          "indexed": false,
          "internalType": "uint256",
          "name": "value",
          "type": "uint256"
        },
        {
          "indexed": false,
          "internalType": "string",
          "name": "proofLink",
          "type": "string"
        },
        {
          "indexed": false,
          "internalType": "address",
          "name": "admin",
          "type": "address"
        },
        {
          "indexed": false,
          "internalType": "uint256",
          "name": "index",
          "type": "uint256"
        },
        {
          "indexed": false,
          "internalType": "bool",
          "name": "verified",
          "type": "bool"
        },
        {
          "indexed": false,
          "internalType": "uint256",
          "name": "transactionIndex",
          "type": "uint256"
        }
      ],
      "name": "generateRandomTransaction",
      "type": "event"
    },
    {
      "anonymous": false,
      "inputs": [
        {
          "indexed": false,
          "internalType": "string",
          "name": "abc",
          "type": "string"
        }
      ],
      "name": "reachedHere",
      "type": "event"
    },
    {
      "stateMutability": "nonpayable",
      "type": "fallback"
    },
    {
      "inputs": [],
      "name": "adminCount",
      "outputs": [
        {
          "internalType": "uint256",
          "name": "",
          "type": "uint256"
        }
      ],
      "stateMutability": "view",
      "type": "function",
      "constant": true
    },
    {
      "inputs": [
        {
          "internalType": "uint256",
          "name": "",
          "type": "uint256"
        }
      ],
      "name": "keyList",
      "outputs": [
        {
          "internalType": "address",
          "name": "",
          "type": "address"
        }
      ],
      "stateMutability": "view",
      "type": "function",
      "constant": true
    },
    {
      "inputs": [],
      "name": "pCount",
      "outputs": [
        {
          "internalType": "uint256",
          "name": "",
          "type": "uint256"
        }
      ],
      "stateMutability": "view",
      "type": "function",
      "constant": true
    },
    {
      "inputs": [
        {
          "internalType": "address",
          "name": "",
          "type": "address"
        }
      ],
      "name": "projectCount",
      "outputs": [
        {
          "internalType": "uint256",
          "name": "",
          "type": "uint256"
        }
      ],
      "stateMutability": "view",
      "type": "function",
      "constant": true
    },
    {
      "inputs": [
        {
          "internalType": "uint256",
          "name": "",
          "type": "uint256"
        }
      ],
      "name": "projectMap",
      "outputs": [
        {
          "internalType": "address",
          "name": "admin",
          "type": "address"
        },
        {
          "internalType": "uint256",
          "name": "adminIndex",
          "type": "uint256"
        }
      ],
      "stateMutability": "view",
      "type": "function",
      "constant": true
    },
    {
      "inputs": [
        {
          "internalType": "address",
          "name": "",
          "type": "address"
        },
        {
          "internalType": "uint256",
          "name": "",
          "type": "uint256"
        }
      ],
      "name": "projects",
      "outputs": [
        {
          "internalType": "string",
          "name": "name",
          "type": "string"
        },
        {
          "internalType": "string",
          "name": "description",
          "type": "string"
        },
        {
          "internalType": "uint256",
          "name": "limit",
          "type": "uint256"
        },
        {
          "internalType": "address",
          "name": "admin",
          "type": "address"
        },
        {
          "internalType": "uint256",
          "name": "donatedValue",
          "type": "uint256"
        },
        {
          "internalType": "uint256",
          "name": "balance",
          "type": "uint256"
        },
        {
          "internalType": "uint256",
          "name": "transactionSize",
          "type": "uint256"
        },
        {
          "internalType": "uint256",
          "name": "spentAmount",
          "type": "uint256"
        },
        {
          "internalType": "uint256",
          "name": "index",
          "type": "uint256"
        }
      ],
      "stateMutability": "view",
      "type": "function",
      "constant": true
    },
    {
      "stateMutability": "payable",
      "type": "receive",
      "payable": true
    },
    {
      "inputs": [],
      "name": "showBalance",
      "outputs": [
        {
          "internalType": "uint256",
          "name": "",
          "type": "uint256"
        }
      ],
      "stateMutability": "view",
      "type": "function",
      "constant": true
    },
    {
      "inputs": [],
      "name": "showEtherBalance",
      "outputs": [
        {
          "internalType": "uint256",
          "name": "",
          "type": "uint256"
        }
      ],
      "stateMutability": "view",
      "type": "function",
      "constant": true
    },
    {
      "inputs": [
        {
          "internalType": "string",
          "name": "_name",
          "type": "string"
        },
        {
          "internalType": "string",
          "name": "_desc",
          "type": "string"
        },
        {
          "internalType": "uint256",
          "name": "_value",
          "type": "uint256"
        }
      ],
      "name": "createProject",
      "outputs": [],
      "stateMutability": "nonpayable",
      "type": "function"
    },
    {
      "inputs": [
        {
          "internalType": "address",
          "name": "owner",
          "type": "address"
        },
        {
          "internalType": "uint256",
          "name": "index",
          "type": "uint256"
        }
      ],
      "name": "viewProject",
      "outputs": [
        {
          "internalType": "string",
          "name": "name",
          "type": "string"
        },
        {
          "internalType": "string",
          "name": "desc",
          "type": "string"
        },
        {
          "internalType": "uint256",
          "name": "value",
          "type": "uint256"
        },
        {
          "internalType": "address",
          "name": "admin",
          "type": "address"
        },
        {
          "internalType": "uint256",
          "name": "donatedValue",
          "type": "uint256"
        },
        {
          "internalType": "uint256",
          "name": "balance",
          "type": "uint256"
        },
        {
          "internalType": "uint256",
          "name": "transactionSize",
          "type": "uint256"
        },
        {
          "internalType": "uint256",
          "name": "spentAmount",
          "type": "uint256"
        },
        {
          "internalType": "uint256",
          "name": "index1",
          "type": "uint256"
        }
      ],
      "stateMutability": "nonpayable",
      "type": "function"
    },
    {
      "inputs": [
        {
          "internalType": "address",
          "name": "admin",
          "type": "address"
        }
      ],
      "name": "returnProjectCountForCreator",
      "outputs": [
        {
          "internalType": "uint256",
          "name": "count",
          "type": "uint256"
        }
      ],
      "stateMutability": "view",
      "type": "function",
      "constant": true
    },
    {
      "inputs": [
        {
          "internalType": "address",
          "name": "admin",
          "type": "address"
        }
      ],
      "name": "viewProjects",
      "outputs": [
        {
          "internalType": "string[]",
          "name": "names",
          "type": "string[]"
        },
        {
          "internalType": "string[]",
          "name": "desc",
          "type": "string[]"
        },
        {
          "internalType": "uint256[]",
          "name": "limits",
          "type": "uint256[]"
        },
        {
          "internalType": "address[]",
          "name": "owners",
          "type": "address[]"
        }
      ],
      "stateMutability": "nonpayable",
      "type": "function"
    },
    {
      "inputs": [],
      "name": "viewAllProjectAdmins",
      "outputs": [
        {
          "internalType": "address[]",
          "name": "arrayOfProjectOwners",
          "type": "address[]"
        }
      ],
      "stateMutability": "view",
      "type": "function",
      "constant": true
    },
    {
      "inputs": [
        {
          "internalType": "string",
          "name": "link",
          "type": "string"
        },
        {
          "internalType": "address",
          "name": "admin",
          "type": "address"
        },
        {
          "internalType": "uint256",
          "name": "index",
          "type": "uint256"
        },
        {
          "internalType": "uint256",
          "name": "transactionIndex",
          "type": "uint256"
        }
      ],
      "name": "submitProof",
      "outputs": [],
      "stateMutability": "nonpayable",
      "type": "function"
    },
    {
      "inputs": [],
      "name": "requestedRandomTransactionFromMod",
      "outputs": [
        {
          "internalType": "string",
          "name": "purpose",
          "type": "string"
        },
        {
          "internalType": "uint256",
          "name": "value",
          "type": "uint256"
        },
        {
          "internalType": "string",
          "name": "proofLink",
          "type": "string"
        },
        {
          "internalType": "address",
          "name": "admin",
          "type": "address"
        },
        {
          "internalType": "uint256",
          "name": "index",
          "type": "uint256"
        },
        {
          "internalType": "bool",
          "name": "verified",
          "type": "bool"
        },
        {
          "internalType": "uint256",
          "name": "transactionIndex",
          "type": "uint256"
        }
      ],
      "stateMutability": "nonpayable",
      "type": "function"
    },
    {
      "inputs": [
        {
          "internalType": "uint256",
          "name": "amount",
          "type": "uint256"
        },
        {
          "internalType": "uint256",
          "name": "index",
          "type": "uint256"
        },
        {
          "internalType": "string",
          "name": "purpose",
          "type": "string"
        }
      ],
      "name": "withdraw",
      "outputs": [],
      "stateMutability": "nonpayable",
      "type": "function"
    },
    {
      "inputs": [
        {
          "internalType": "uint256",
          "name": "donatedAmt",
          "type": "uint256"
        },
        {
          "internalType": "address",
          "name": "admin",
          "type": "address"
        },
        {
          "internalType": "uint256",
          "name": "index",
          "type": "uint256"
        }
      ],
      "name": "checkLimit",
      "outputs": [
        {
          "internalType": "bool",
          "name": "isLimitReached",
          "type": "bool"
        }
      ],
      "stateMutability": "view",
      "type": "function",
      "constant": true
    },
    {
      "inputs": [],
      "name": "viewReputationTokenBalance",
      "outputs": [
        {
          "internalType": "uint256",
          "name": "",
          "type": "uint256"
        }
      ],
      "stateMutability": "view",
      "type": "function",
      "constant": true
    },
    {
      "inputs": [
        {
          "internalType": "uint256",
          "name": "donatedAmt",
          "type": "uint256"
        },
        {
          "internalType": "address",
          "name": "admin",
          "type": "address"
        },
        {
          "internalType": "uint256",
          "name": "index",
          "type": "uint256"
        }
      ],
      "name": "donatedAmount",
      "outputs": [],
      "stateMutability": "nonpayable",
      "type": "function"
    },
    {
      "inputs": [
        {
          "internalType": "address",
          "name": "admin",
          "type": "address"
        },
        {
          "internalType": "uint256",
          "name": "index",
          "type": "uint256"
        }
      ],
      "name": "viewDonatedAmount",
      "outputs": [
        {
          "internalType": "uint256",
          "name": "value",
          "type": "uint256"
        }
      ],
      "stateMutability": "view",
      "type": "function",
      "constant": true
    },
    {
      "inputs": [
        {
          "internalType": "address",
          "name": "admin",
          "type": "address"
        },
        {
          "internalType": "uint256",
          "name": "index",
          "type": "uint256"
        }
      ],
      "name": "viewSpentAmount",
      "outputs": [
        {
          "internalType": "uint256",
          "name": "value",
          "type": "uint256"
        }
      ],
      "stateMutability": "view",
      "type": "function",
      "constant": true
    },
    {
      "inputs": [
        {
          "internalType": "address",
          "name": "admin",
          "type": "address"
        },
        {
          "internalType": "uint256",
          "name": "index",
          "type": "uint256"
        },
        {
          "internalType": "uint256",
          "name": "transactionIndex",
          "type": "uint256"
        }
      ],
      "name": "makeTransactionValid",
      "outputs": [],
      "stateMutability": "nonpayable",
      "type": "function"
    },
    {
      "inputs": [
        {
          "internalType": "address",
          "name": "admin",
          "type": "address"
        },
        {
          "internalType": "uint256",
          "name": "index",
          "type": "uint256"
        }
      ],
      "name": "viewAllTransactionsForProject",
      "outputs": [],
      "stateMutability": "nonpayable",
      "type": "function"
    },
    {
      "inputs": [
        {
          "internalType": "address",
          "name": "admin",
          "type": "address"
        },
        {
          "internalType": "uint256",
          "name": "index",
          "type": "uint256"
        },
        {
          "internalType": "uint256",
          "name": "tindex",
          "type": "uint256"
        }
      ],
      "name": "viewSingleTransaction",
      "outputs": [
        {
          "internalType": "string",
          "name": "purpose",
          "type": "string"
        },
        {
          "internalType": "uint256",
          "name": "value",
          "type": "uint256"
        },
        {
          "internalType": "string",
          "name": "proofLink",
          "type": "string"
        },
        {
          "internalType": "bool",
          "name": "verified",
          "type": "bool"
        }
      ],
      "stateMutability": "view",
      "type": "function",
      "constant": true
    }
  ],
  "bytecode": "0x60806040526001601055600060115560006014553480156200002057600080fd5b506040516200385438038062003854833981016040819052620000439162000069565b600080546001600160a01b0319166001600160a01b039290921691909117905562000099565b6000602082840312156200007b578081fd5b81516001600160a01b038116811462000092578182fd5b9392505050565b6137ab80620000a96000396000f3fe60806040526004361061014f5760003560e01c80636608f47c116100b6578063bb5290b81161006f578063bb5290b8146103d0578063be6ee9cb146103f2578063c7dca3471461041a578063e0b215c81461044a578063f23958d11461046a578063f30b21011461047f57610156565b80636608f47c1461030b5780636c8642ba1461032b5780636ec8a0af1461034b5780637ecdd3c51461037b57806381b2d07b1461039b578063826c6bfa146103b057610156565b8063316bde0111610108578063316bde01146102345780633603d35e146102695780633664f55614610289578063369c681b146102b657806355f44f28146102d65780635ed3fc69146102eb57610156565b80630b1434ba146101655780631ce05c451461018757806323c55448146101bd5780632b7832b3146101dd5780632d7cc355146101ff57806330cad5e21461021f57610156565b3661015657005b34801561016257600080fd5b50005b34801561017157600080fd5b506101856101803660046130cf565b6104ad565b005b34801561019357600080fd5b506101a76101a23660046131f0565b6109c9565b6040516101b491906133b5565b60405180910390f35b3480156101c957600080fd5b506101856101d8366004613187565b6109f0565b3480156101e957600080fd5b506101f2610d75565b6040516101b4919061376c565b34801561020b57600080fd5b5061018561021a36600461312c565b610d7b565b34801561022b57600080fd5b506101f261115c565b34801561024057600080fd5b5061025461024f3660046130cf565b611162565b6040516101b49998979695949392919061353f565b34801561027557600080fd5b506101f26102843660046130cf565b6113f4565b34801561029557600080fd5b506102a96102a4366004613220565b611433565b6040516101b491906134ed565b3480156102c257600080fd5b506101856102d1366004613255565b6114d7565b3480156102e257600080fd5b506101f2611b3a565b3480156102f757600080fd5b50610185610306366004613220565b611bc7565b34801561031757600080fd5b506101f26103263660046130b4565b611d15565b34801561033757600080fd5b506101f26103463660046130cf565b611d27565b34801561035757600080fd5b5061036b6103663660046130f9565b611d65565b6040516101b49493929190613603565b34801561038757600080fd5b506102546103963660046130cf565b6120f1565b3480156103a757600080fd5b506101f2612281565b3480156103bc57600080fd5b506101856103cb3660046130f9565b612285565b3480156103dc57600080fd5b506103e56122e4565b6040516101b491906133e2565b3480156103fe57600080fd5b50610407612346565b6040516101b497969594939291906135a8565b34801561042657600080fd5b5061043a6104353660046130b4565b61242e565b6040516101b494939291906133f5565b34801561045657600080fd5b506101f26104653660046130b4565b61286f565b34801561047657600080fd5b506101f261288a565b34801561048b57600080fd5b5061049f61049a3660046131f0565b612898565b6040516101b49291906133c9565b6001600160a01b0382166000908152600d602052604081208054839081106104d157fe5b90600052602060002090600a02016007015490506060816001600160401b03811180156104fd57600080fd5b5060405190808252806020026020018201604052801561053157816020015b606081526020019060019003908161051c5790505b5090506060826001600160401b038111801561054c57600080fd5b50604051908082528060200260200182016040528015610576578160200160208202803683370190505b5090506060836001600160401b038111801561059157600080fd5b506040519080825280602002602001820160405280156105c557816020015b60608152602001906001900390816105b05790505b5090506060846001600160401b03811180156105e057600080fd5b5060405190808252806020026020018201604052801561060a578160200160208202803683370190505b5090506060856001600160401b038111801561062557600080fd5b5060405190808252806020026020018201604052801561064f578160200160208202803683370190505b50905060005b8681101561097d576001600160a01b0389166000908152600d6020526040902080548990811061068157fe5b60009182526020808320848452600a9283020160060181526040928390209091018054835160026001831615610100026000190190921691909104601f81018490048402820184019094528381529290918301828280156107235780601f106106f857610100808354040283529160200191610723565b820191906000526020600020905b81548152906001019060200180831161070657829003601f168201915b505050505086828151811061073457fe5b6020026020010181905250600d60008a6001600160a01b03166001600160a01b03168152602001908152602001600020888154811061076f57fe5b90600052602060002090600a02016006016000828152602001908152602001600020600b01548582815181106107a157fe5b602002602001018181525050600d60008a6001600160a01b03166001600160a01b0316815260200190815260200160002088815481106107dd57fe5b600091825260208083208484526006600a90930201919091018152604091829020600c0180548351601f6002600019610100600186161502019093169290920491820184900484028101840190945280845290918301828280156108825780601f1061085757610100808354040283529160200191610882565b820191906000526020600020905b81548152906001019060200180831161086557829003601f168201915b505050505084828151811061089357fe5b6020026020010181905250600d60008a6001600160a01b03166001600160a01b0316815260200190815260200160002088815481106108ce57fe5b600091825260208083208484526006600a9093020191909101905260409020600f0154835160ff9091169084908390811061090557fe5b9115156020928302919091018201526001600160a01b038a166000908152600d9091526040902080548990811061093857fe5b90600052602060002090600a020160060160008281526020019081526020016000206010015482828151811061096a57fe5b6020908102919091010152600101610655565b507fd013b5252a62ea96313f2dbe2629990b898285e8e551de9e3a86f26708c0bd018585858b86866040516109b79695949392919061344c565b60405180910390a15050505050505050565b601381815481106109d657fe5b6000918252602090912001546001600160a01b0316905081565b3360008181526015602052604080822054825491516370a0823160e01b815290936001600160a01b03909216916370a0823191610a3091906004016133b5565b60206040518083038186803b158015610a4857600080fd5b505afa158015610a5c573d6000803e3d6000fd5b505050506040513d601f19601f82011682018060405250810190610a809190613208565b905080610a8b575060015b6000818381610a9657fe5b0490506002811115610ac35760405162461bcd60e51b8152600401610aba90613642565b60405180910390fd5b60408051610120810182528781526020808201889052818301879052336060830181905260006080840181905260a0840189905260c0840181905260e08401819052908152600e82529290922054610100820152805180519192600192610b2d9284920190612e21565b506020828101518051610b469260018501920190612e21565b5060408281015160028381019190915560608401516003840180546001600160a01b0319166001600160a01b039092169190911790556080840151600484015560a0840151600584015560c0840151600784015560e0840151600884015561010093840151600990930192909255336000908152600d60209081529181208054600181810183559183529290912081549194600a9093020192610bf9928492869281841615909202600019011604612e9f565b5060018201816001019080546001816001161561010002031660029004610c21929190612e9f565b506002828101549082015560038083015490820180546001600160a01b03199081166001600160a01b0393841617909155600480850154908401556005808501549084015560078085015490840155600880850154908401556009938401549390920192909255604080518082018252338082526000818152600e602090815284822054818501908152600b548352600c82528583209451855498169790961696909617835593516001929092019190915582526012909252205460ff16610d4b57336000818152601260205260408120805460ff1916600190811790915560138054808301825592527f66de8ffda797e3de9c05e8fc57b3bf0ec28a930d40b0d285d93c06501cf6a09090910180546001600160a01b0319169092179091556014805490910190555b5050336000908152600e6020526040902080546001908101909155600b8054909101905550505050565b60145481565b6001600160a01b0383163314610da35760405162461bcd60e51b8152600401610aba906136c0565b6001600160a01b0383166000908152600d60205260409020805485919084908110610dca57fe5b90600052602060002090600a02016006016000838152602001908152602001600020600c019080519060200190610e02929190612e21565b506001600160a01b0383166000908152600d602052604090208054611156919084908110610e2c57fe5b60009182526020808320858452600a929092029091016006018152604091829020825181546002610100600183161581026000190190921604601f81018590049094028201610240908101909552610220820184815291949293859391840192859284928491870182828015610ee35780601f10610eb857610100808354040283529160200191610ee3565b820191906000526020600020905b815481529060010190602001808311610ec657829003601f168201915b50505050508152602001600182018054600181600116156101000203166002900480601f016020809104026020016040519081016040528092919081815260200182805460018160011615610100020316600290048015610f855780601f10610f5a57610100808354040283529160200191610f85565b820191906000526020600020905b815481529060010190602001808311610f6857829003601f168201915b505050918352505060028281015460208084019190915260038401546001600160a01b03166040808501919091526004850154606085015260058501546080850152600785015460a0850152600885015460c085015260099094015460e090930192909252928452600a8501805483516101006001831615026000190190911694909404601f81018390048302850183019093528284529381019391908301828280156110735780601f1061104857610100808354040283529160200191611073565b820191906000526020600020905b81548152906001019060200180831161105657829003601f168201915b5050509183525050600b820154602080830191909152600c8301805460408051601f600260001961010060018716150201909416939093049283018590048502810185018252828152940193928301828280156111115780601f106110e657610100808354040283529160200191611111565b820191906000526020600020905b8154815290600101906020018083116110f457829003601f168201915b5050509183525050600d8201546001600160a01b03166020820152600e8201546040820152600f82015460ff16151560608201526010909101546080909101526128bd565b50505050565b600b5481565b6060806000806000806000806000611178612f14565b6001600160a01b038c166000908152600d6020526040902080548c90811061119c57fe5b600091825260209182902060408051600a93909302909101805460026001821615610100026000190190911604601f810185900490940283016101409081019092526101208301848152929390928492909184918401828280156112415780601f1061121657610100808354040283529160200191611241565b820191906000526020600020905b81548152906001019060200180831161122457829003601f168201915b50505050508152602001600182018054600181600116156101000203166002900480601f0160208091040260200160405190810160405280929190818152602001828054600181600116156101000203166002900480156112e35780601f106112b8576101008083540402835291602001916112e3565b820191906000526020600020905b8154815290600101906020018083116112c657829003601f168201915b50505050508152602001600282015481526020016003820160009054906101000a90046001600160a01b03166001600160a01b03166001600160a01b031681526020016004820154815260200160058201548152602001600782015481526020016008820154815260200160098201548152505090507fa9aaded09b889343b11b9495f2e358722884a49c01915cb7a5a2971a95451ed3816000015182602001518360400151846060015160405161139e94939291906134f8565b60405180910390a1806000015181602001518260400151836060015184608001518560a001518660c001518760e00151886101000151995099509950995099509950995099509950509295985092959850929598565b6001600160a01b0382166000908152600d6020526040812080548390811061141857fe5b90600052602060002090600a02016004015490505b92915050565b6001600160a01b0382166000908152600d6020526040812080548291908490811061145a57fe5b90600052602060002090600a02016004015490506000600d6000866001600160a01b03166001600160a01b0316815260200190815260200160002084815481106114a057fe5b90600052602060002090600a02016002015490508086830110156114c9576001925050506114d0565b6000925050505b9392505050565b336000908152600d602052604081208054849081106114f257fe5b6000918252602082206007600a90920201015481546040516370a0823160e01b81529193506001600160a01b0316906370a08231906115359033906004016133b5565b60206040518083038186803b15801561154d57600080fd5b505afa158015611561573d6000803e3d6000fd5b505050506040513d601f19601f820116820180604052508101906115859190613208565b905080611590575060015b600081838161159b57fe5b04905060028111156115bf5760405162461bcd60e51b8152600401610aba90613689565b336000908152600d602052604081208054879081106115da57fe5b90600052602060002090600a020160080154600d6000336001600160a01b03166001600160a01b03168152602001908152602001600020878154811061161c57fe5b90600052602060002090600a02016004015403905060008790508082116116555760405162461bcd60e51b8152600401610aba90613735565b6040513390670de0b6b3a76400008a0280156108fc02916000818181858888f1935050505015801561168b573d6000803e3d6000fd5b50336000908152600d602052604081208054899081106116a757fe5b90600052602060002090600a02016007015490506116c3612f69565b6040805161010081018252336000908152600d6020529190912080548291908c9081106116ec57fe5b600091825260209182902060408051600a93909302909101805460026001821615610100026000190190911604601f810185900490940283016101409081019092526101208301848152929390928492909184918401828280156117915780601f1061176657610100808354040283529160200191611791565b820191906000526020600020905b81548152906001019060200180831161177457829003601f168201915b50505050508152602001600182018054600181600116156101000203166002900480601f0160208091040260200160405190810160405280929190818152602001828054600181600116156101000203166002900480156118335780601f1061180857610100808354040283529160200191611833565b820191906000526020600020905b81548152906001019060200180831161181657829003601f168201915b50505050508152602001600282015481526020016003820160009054906101000a90046001600160a01b03166001600160a01b03166001600160a01b031681526020016004820154815260200160058201548152602001600782015481526020016008820154815260200160098201548152505081526020018981526020018b8152602001604051806020016040528060008152508152602001336001600160a01b031681526020018a815260200160001515815260200183815250905080600d6000336001600160a01b03166001600160a01b031681526020019081526020016000208a8154811061192257fe5b600091825260208083208684526006600a90930201919091018152604090912082518051805192939192849261195c928492910190612e21565b5060208281015180516119759260018501920190612e21565b506040820151600282015560608201516003820180546001600160a01b0319166001600160a01b039092169190911790556080820151600482015560a0820151600582015560c0820151600782015560e082015160088201556101009091015160099091015560208281015180516119f392600a8501920190612e21565b506040820151600b82015560608201518051611a1991600c840191602090910190612e21565b506080820151600d82810180546001600160a01b0319166001600160a01b039093169290921790915560a0830151600e83015560c0830151600f8301805460ff191691151591909117905560e0909201516010909101553360009081526020919091526040902080548a908110611a8c57fe5b600091825260208083206007600a9093020191909101805460019081019091553383526015825260408084208054909201909155600d909152902080548b91908b908110611ad657fe5b90600052602060002090600a02016008015401600d6000336001600160a01b03166001600160a01b031681526020019081526020016000208a81548110611b1957fe5b90600052602060002090600a02016008018190555050505050505050505050565b60008060009054906101000a90046001600160a01b03166001600160a01b031663c71daccb6040518163ffffffff1660e01b815260040160206040518083038186803b158015611b8957600080fd5b505afa158015611b9d573d6000803e3d6000fd5b505050506040513d601f19601f82011682018060405250810190611bc19190613208565b90505b90565b6001600160a01b0382166000908152600d60205260409020805484919083908110611bee57fe5b90600052602060002090600a02016004015401600d6000846001600160a01b03166001600160a01b031681526020019081526020016000208281548110611c3157fe5b90600052602060002090600a020160040181905550600d6000836001600160a01b03166001600160a01b031681526020019081526020016000208181548110611c7657fe5b90600052602060002090600a020160040154600d6000846001600160a01b03166001600160a01b031681526020019081526020016000208281548110611cb857fe5b90600052602060002090600a02016002015403600d6000846001600160a01b03166001600160a01b031681526020019081526020016000208281548110611cfb57fe5b90600052602060002090600a020160050181905550505050565b600e6020526000908152604090205481565b6001600160a01b0382166000908152600d60205260408120805483908110611d4b57fe5b90600052602060002090600a020160080154905092915050565b6060600060606000611d75612f69565b6001600160a01b0388166000908152600d60205260409020805488908110611d9957fe5b60009182526020808320898452600a929092029091016006018152604091829020825181546002610100600183161581026000190190921604601f81018590049094028201610240908101909552610220820184815291949293859391840192859284928491870182828015611e505780601f10611e2557610100808354040283529160200191611e50565b820191906000526020600020905b815481529060010190602001808311611e3357829003601f168201915b50505050508152602001600182018054600181600116156101000203166002900480601f016020809104026020016040519081016040528092919081815260200182805460018160011615610100020316600290048015611ef25780601f10611ec757610100808354040283529160200191611ef2565b820191906000526020600020905b815481529060010190602001808311611ed557829003601f168201915b505050918352505060028281015460208084019190915260038401546001600160a01b03166040808501919091526004850154606085015260058501546080850152600785015460a0850152600885015460c085015260099094015460e090930192909252928452600a8501805483516101006001831615026000190190911694909404601f8101839004830285018301909352828452938101939190830182828015611fe05780601f10611fb557610100808354040283529160200191611fe0565b820191906000526020600020905b815481529060010190602001808311611fc357829003601f168201915b5050509183525050600b820154602080830191909152600c8301805460408051601f6002600019610100600187161502019094169390930492830185900485028101850182528281529401939283018282801561207e5780601f106120535761010080835404028352916020019161207e565b820191906000526020600020905b81548152906001019060200180831161206157829003601f168201915b5050509183525050600d8201546001600160a01b0316602080830191909152600e830154604080840191909152600f84015460ff161515606080850191909152601090940154608090930192909252830151908301519183015160c090930151909b919a50919850909650945050505050565b600d602052816000526040600020818154811061210a57fe5b6000918252602091829020600a919091020180546040805160026001841615610100026000190190931692909204601f8101859004850283018501909152808252919450925083918301828280156121a35780601f10612178576101008083540402835291602001916121a3565b820191906000526020600020905b81548152906001019060200180831161218657829003601f168201915b505050505090806001018054600181600116156101000203166002900480601f0160208091040260200160405190810160405280929190818152602001828054600181600116156101000203166002900480156122415780601f1061221657610100808354040283529160200191612241565b820191906000526020600020905b81548152906001019060200180831161222457829003601f168201915b50505050600283015460038401546004850154600586015460078701546008880154600990980154969794966001600160a01b0390941695509193909289565b4790565b6001600160a01b0383166000908152600d60205260409020805460019190849081106122ad57fe5b60009182526020808320948352600a919091029093016006019092526040909120600f01805460ff19169115159190911790555050565b6060601380548060200260200160405190810160405280929190818152602001828054801561233c57602002820191906000526020600020905b81546001600160a01b0316815260019091019060200180831161231e575b5050505050905090565b6060600060606000806000807f73ec5d7d695d61c77d42a33fa5d339a81f77dd3783aeeff0b01cec522e996e6560405161237f906136e6565b60405180910390a161238f612f69565b612397612a08565b60208101516040808301516060840151608085015160a086015160c087015160e088015195519798507f139d7bbbfb02dbf471ab19634ba2409034897f9eedb10e730a57b6ed39d0791e976123ed9796906135a8565b60405180910390a1602081015160408201516060830151608084015160a085015160c086015160e090960151949d939c50919a509850965091945092509050565b6001600160a01b0381166000908152600d602052604090205460609081908190819081816001600160401b038111801561246757600080fd5b5060405190808252806020026020018201604052801561249b57816020015b60608152602001906001900390816124865790505b5090506060826001600160401b03811180156124b657600080fd5b506040519080825280602002602001820160405280156124ea57816020015b60608152602001906001900390816124d55790505b5090506060836001600160401b038111801561250557600080fd5b5060405190808252806020026020018201604052801561252f578160200160208202803683370190505b5090506060846001600160401b038111801561254a57600080fd5b50604051908082528060200260200182016040528015612574578160200160208202803683370190505b50905060005b85811015612821576001600160a01b038b166000908152600d602052604090208054829081106125a657fe5b6000918252602091829020600a90910201805460408051601f60026000196101006001871615020190941693909304928301859004850281018501909152818152928301828280156126395780601f1061260e57610100808354040283529160200191612639565b820191906000526020600020905b81548152906001019060200180831161261c57829003601f168201915b505050505085828151811061264a57fe5b6020026020010181905250600d60008c6001600160a01b03166001600160a01b03168152602001908152602001600020818154811061268557fe5b90600052602060002090600a02016001018054600181600116156101000203166002900480601f01602080910402602001604051908101604052809291908181526020018280546001816001161561010002031660029004801561272a5780601f106126ff5761010080835404028352916020019161272a565b820191906000526020600020905b81548152906001019060200180831161270d57829003601f168201915b505050505084828151811061273b57fe5b6020026020010181905250600d60008c6001600160a01b03166001600160a01b03168152602001908152602001600020818154811061277657fe5b90600052602060002090600a02016002015483828151811061279457fe5b602002602001018181525050600d60008c6001600160a01b03166001600160a01b0316815260200190815260200160002081815481106127d057fe5b90600052602060002090600a020160030160009054906101000a90046001600160a01b031682828151811061280157fe5b6001600160a01b039092166020928302919091019091015260010161257a565b507f44f513b6ae98a0113d0bf02a191f443e7a213a12360f5127fd9ffb42145bbb538484848460405161285794939291906133f5565b60405180910390a19299919850965090945092505050565b6001600160a01b03166000908152600e602052604090205490565b670de0b6b3a7640000470490565b600c60205260009081526040902080546001909101546001600160a01b039091169082565b60118054600101908190556000908152600f60209081526040909120825180518051859484926128f39284929190910190612e21565b50602082810151805161290c9260018501920190612e21565b506040820151600282015560608201516003820180546001600160a01b0319166001600160a01b039092169190911790556080820151600482015560a0820151600582015560c0820151600782015560e0820151600882015561010090910151600990910155602082810151805161298a92600a8501920190612e21565b506040820151600b820155606082015180516129b091600c840191602090910190612e21565b506080820151600d820180546001600160a01b0319166001600160a01b0390921691909117905560a0820151600e82015560c0820151600f8201805460ff191691151591909117905560e09091015160109091015550565b612a10612f69565b6010546011541015612a345760405162461bcd60e51b8152600401610aba90613709565b6010546000908152600f6020908152604091829020825181546002610100600183161581026000190190921604601f81018590049094028201610240908101909552610220820184815291949293859391840192859284928491870182828015612adf5780601f10612ab457610100808354040283529160200191612adf565b820191906000526020600020905b815481529060010190602001808311612ac257829003601f168201915b50505050508152602001600182018054600181600116156101000203166002900480601f016020809104026020016040519081016040528092919081815260200182805460018160011615610100020316600290048015612b815780601f10612b5657610100808354040283529160200191612b81565b820191906000526020600020905b815481529060010190602001808311612b6457829003601f168201915b505050918352505060028281015460208084019190915260038401546001600160a01b03166040808501919091526004850154606085015260058501546080850152600785015460a0850152600885015460c085015260099094015460e090930192909252928452600a8501805483516101006001831615026000190190911694909404601f8101839004830285018301909352828452938101939190830182828015612c6f5780601f10612c4457610100808354040283529160200191612c6f565b820191906000526020600020905b815481529060010190602001808311612c5257829003601f168201915b5050509183525050600b820154602080830191909152600c8301805460408051601f60026000196101006001871615020190941693909304928301859004850281018501825282815294019392830182828015612d0d5780601f10612ce257610100808354040283529160200191612d0d565b820191906000526020600020905b815481529060010190602001808311612cf057829003601f168201915b5050509183525050600d8201546001600160a01b0316602080830191909152600e830154604080840191909152600f8085015460ff1615156060850152601094850154608090940193909352925460009081529190529081209192508181612d758282612fbf565b612d83600183016000612fbf565b506000600282018190556003820180546001600160a01b0319169055600482018190556005820181905560078201819055600882018190556009909101819055612dd190600a840190612fbf565b600b820160009055600c82016000612de99190612fbf565b50600d810180546001600160a01b03191690556000600e8201819055600f8201805460ff191690556010918201558054600101905590565b828054600181600116156101000203166002900490600052602060002090601f016020900481019282601f10612e6257805160ff1916838001178555612e8f565b82800160010185558215612e8f579182015b82811115612e8f578251825591602001919060010190612e74565b50612e9b929150613006565b5090565b828054600181600116156101000203166002900490600052602060002090601f016020900481019282601f10612ed85780548555612e8f565b82800160010185558215612e8f57600052602060002091601f016020900482015b82811115612e8f578254825591600101919060010190612ef9565b60405180610120016040528060608152602001606081526020016000815260200160006001600160a01b0316815260200160008152602001600081526020016000815260200160008152602001600081525090565b604051806101000160405280612f7d612f14565b815260200160608152602001600081526020016060815260200160006001600160a01b0316815260200160008152602001600015158152602001600081525090565b50805460018160011615610100020316600290046000825580601f10612fe55750613003565b601f0160209004906000526020600020908101906130039190613006565b50565b611bc491905b80821115612e9b576000815560010161300c565b80356001600160a01b038116811461142d57600080fd5b600082601f830112613047578081fd5b81356001600160401b038082111561305d578283fd5b604051601f8301601f19168101602001828111828210171561307d578485fd5b60405282815292508284830160200186101561309857600080fd5b8260208601602083013760006020848301015250505092915050565b6000602082840312156130c5578081fd5b6114d08383613020565b600080604083850312156130e1578081fd5b6130eb8484613020565b946020939093013593505050565b60008060006060848603121561310d578081fd5b6131178585613020565b95602085013595506040909401359392505050565b60008060008060808587031215613141578081fd5b84356001600160401b03811115613156578182fd5b61316287828801613037565b9450506131728660208701613020565b93969395505050506040820135916060013590565b60008060006060848603121561319b578283fd5b83356001600160401b03808211156131b1578485fd5b6131bd87838801613037565b945060208601359150808211156131d2578384fd5b506131df86828701613037565b925050604084013590509250925092565b600060208284031215613201578081fd5b5035919050565b600060208284031215613219578081fd5b5051919050565b600080600060608486031215613234578283fd5b833592506132458560208601613020565b9150604084013590509250925092565b600080600060608486031215613269578283fd5b833592506020840135915060408401356001600160401b0381111561328c578182fd5b61329886828701613037565b9150509250925092565b6000815180845260208085019450808401835b838110156132da5781516001600160a01b0316875295820195908201906001016132b5565b509495945050505050565b60008282518085526020808601955080818302840101818601855b8481101561332e57601f1986840301895261331c83835161336a565b98840198925090830190600101613300565b5090979650505050505050565b6000815180845260208085019450808401835b838110156132da5781518752958201959082019060010161334e565b60008151808452815b8181101561338f57602081850181015186830182015201613373565b818111156133a05782602083870101525b50601f01601f19169290920160200192915050565b6001600160a01b0391909116815260200190565b6001600160a01b03929092168252602082015260400190565b6000602082526114d060208301846132a2565b60006080825261340860808301876132e5565b828103602084015261341a81876132e5565b838103604085015261342c818761333b565b915050828103606084015261344181856132a2565b979650505050505050565b600060c0825261345f60c08301896132e5565b602083820381850152613472828a61333b565b8481036040860152613484818a6132e5565b6001600160a01b03891660608701528581036080870152875180825283890194509083019150845b818110156134ca5784511515835293830193918301916001016134ac565b505084810360a08601526134de818761333b565b9b9a5050505050505050505050565b901515815260200190565b60006080825261350b608083018761336a565b828103602084015261351d818761336a565b604084019590955250506001600160a01b039190911660609091015292915050565b60006101208083526135538184018d61336a565b8381036020850152613565818d61336a565b604085019b909b525050506001600160a01b03969096166060870152608086019490945260a085019290925260c084015260e08301526101009091015292915050565b600060e082526135bb60e083018a61336a565b88602084015282810360408401526135d3818961336a565b6001600160a01b039790971660608401525050608081019390935290151560a083015260c0909101529392505050565b600060808252613616608083018761336a565b856020840152828103604084015261362e818661336a565b915050821515606083015295945050505050565b60208082526027908201527f52657075746174696f6e20746f6f206c6f7720746f2063726561746520612070604082015266726f6a6563742160c81b606082015260800190565b60208082526017908201527f52657075746174696f6e2042616c616e6365204c6f7721000000000000000000604082015260600190565b6020808252600c908201526b24b73b30b634b2102ab9b2b960a11b604082015260600190565b60208082526009908201526802424902a2422a922960bd1b604082015260600190565b602080825260129082015271115c9c8819195c5d595d594819985a5b195960721b604082015260600190565b60208082526019908201527f496e76616c6964205769746864726177616c20416d6f756e7400000000000000604082015260600190565b9081526020019056fea26469706673582212204e3df806402d074cbad1139faf1c98af24b53446b3556af1e282739aea46e6aa64736f6c63430006060033",
  "immutableReferences": {},
  "source": "pragma solidity >=0.4.22 <0.7.0;\r\npragma experimental ABIEncoderV2;\r\nimport './ReputationToken.sol';\r\ncontract ProjectCreator{\r\n    struct Project{\r\n        string name;\r\n        string description;\r\n        uint limit;\r\n        address admin;\r\n        uint donatedValue;\r\n        uint balance;\r\n        mapping ( uint=> Transaction) transactions;\r\n        uint transactionSize;\r\n        uint spentAmount;\r\n        uint index;\r\n    }\r\n    struct Transaction{\r\n        Project p;\r\n        string purpose;\r\n        uint value;\r\n        string proofLink;\r\n        address admin;\r\n        uint index;\r\n        bool verified;\r\n        uint transactionIndex;\r\n    }\r\n    struct globalIndexToAdmin{\r\n        address admin;\r\n        uint adminIndex;\r\n    }\r\n    ReputationToken rep;\r\n    Project p;\r\n    uint public pCount;\r\n    mapping (uint => globalIndexToAdmin) public projectMap;\r\n    mapping (address => Project[]) public projects;\r\n    mapping (address => uint) public projectCount;\r\n    mapping(uint256 => Transaction) queue;\r\n    uint256 first = 1;\r\n    uint256 last = 0;\r\n    mapping (address => bool) adminCheck;\r\n    address[] public keyList;\r\n    uint public adminCount = 0;\r\n    mapping (address => uint) overallTransactionCount;\r\n\r\n \r\n    constructor(address _repToken) public{\r\n        rep = ReputationToken(_repToken);\r\n    }\r\n    function showBalance()public view returns(uint){\r\n        return address(this).balance;\r\n    }\r\n    function showEtherBalance() public view returns(uint){\r\n        return address(this).balance / (10**18);\r\n    }\r\n    receive() external payable{\r\n        //Receive Ether\r\n    }\r\n    fallback() external{\r\n        //In case of an error in receiving ether\r\n    }\r\n    function createProject(string memory _name, string memory _desc, uint _value) public{\r\n        //Ratio between transactionCount count and reputation matters here\r\n        //If ratio is too low, no project creation\r\n        uint transactionCount = overallTransactionCount[msg.sender];\r\n        uint repTokensBalance = rep.balanceOf(msg.sender);\r\n        if(repTokensBalance == 0){\r\n           repTokensBalance = 1;\r\n        }\r\n        uint ratio = transactionCount/repTokensBalance;\r\n        require(ratio <=2,\"Reputation too low to create a project!\");\r\n        p = Project({name: _name, description: _desc, limit: _value,admin: msg.sender,donatedValue: 0, balance: _value,transactionSize: 0,spentAmount:0,index: projectCount[msg.sender]});\r\n        projects[msg.sender].push(p);\r\n        projectMap[pCount] = globalIndexToAdmin({admin: msg.sender, adminIndex: projectCount[msg.sender] });\r\n        //Remove Duplicates\r\n        if(adminCheck[msg.sender] == false){\r\n            adminCheck[msg.sender] = true;\r\n            keyList.push(msg.sender);\r\n            adminCount ++;\r\n        }\r\n        projectCount[msg.sender]++;\r\n        pCount++;\r\n    }\r\n    \r\n    event ViewProject(string  name, string  desc,uint value,address admin);\r\n    function viewProject(address owner,uint index) public returns(string memory name, string memory desc,uint value,address admin, uint donatedValue, uint balance, uint transactionSize, uint spentAmount, uint index1){\r\n        Project memory pr = projects[owner][index];\r\n        emit ViewProject(pr.name,pr.description,pr.limit,pr.admin);\r\n        return (pr.name,pr.description,pr.limit,pr.admin, pr.donatedValue, pr.balance, pr.transactionSize, pr.spentAmount, pr.index );\r\n    }\r\n    function returnProjectCountForCreator(address admin)external view returns (uint count){\r\n        return projectCount[admin];\r\n    }\r\n    event ViewAllProjects(string[]  names, string[]  desc, uint[]  limits,address[]  owners);\r\n    function viewProjects(address admin) public returns (string[] memory names, string[] memory desc, uint[] memory limits,address[] memory owners){\r\n        uint length = projects[admin].length;\r\n        string[] memory n = new string[](length);\r\n        string[] memory d = new string[](length);\r\n        uint[] memory l = new uint[](length);\r\n        address[] memory o = new address[](length);\r\n        for (uint i=0;i<length;i++){\r\n            n[i] =  projects[admin][i].name;\r\n            d[i] =  projects[admin][i].description;\r\n            l[i] =  projects[admin][i].limit;\r\n            o[i] =  projects[admin][i].admin;\r\n        }\r\n        emit ViewAllProjects(n,d,l,o);\r\n        return (n,d,l,o);\r\n    }\r\n    function viewAllProjectAdmins() public view returns(address[] memory arrayOfProjectOwners){\r\n        return keyList;\r\n        //Use this list to retreive all the owners and based on that, use the view projects function. \r\n    }\r\n    \r\n    function submitProof(string memory link, address admin, uint index, uint transactionIndex) public{\r\n        require(admin == msg.sender,\"Invalid User\");\r\n        projects[admin][index].transactions[transactionIndex].proofLink = link;\r\n        enqueue(projects[admin][index].transactions[transactionIndex]);\r\n    }\r\n    event generateRandomTransaction(string  purpose,uint value, string  proofLink,address admin,uint index,bool verified,uint transactionIndex);\r\n    event reachedHere(string abc);\r\n    function requestedRandomTransactionFromMod()public returns( string memory purpose,uint value, string memory proofLink,address admin,uint index,bool verified,uint transactionIndex){\r\n        emit reachedHere(\"HI THERE \");\r\n        Transaction memory review = dequeue();\r\n        //Process the emit here and pass it on the moderator function\r\n        emit generateRandomTransaction(review.purpose,review.value,review.proofLink,review.admin,review.index,review.verified,review.transactionIndex);\r\n        return (review.purpose,review.value,review.proofLink,review.admin,review.index,review.verified,review.transactionIndex);\r\n        // return (\"hello\",10,\"nope\",msg.sender,0,true,0);\r\n    }\r\n  \r\n    function enqueue(Transaction memory data) internal {\r\n        last += 1;\r\n        queue[last] = data;\r\n    }\r\n    \r\n    function dequeue() internal returns (Transaction memory data) {\r\n        require(last >= first,'Err dequeue failed');  // non-empty queue\r\n        data = queue[first];\r\n        delete queue[first];\r\n        first += 1;\r\n    }\r\n    \r\n    function withdraw(uint amount, uint index,string memory purpose) public{\r\n        //Withdraw based on reputation\r\n        //Based on Ratio of transactionCount and reputation.\r\n        //Require statement not needed because i am using msg.sender\r\n        uint transactionCount = projects[msg.sender][index].transactionSize;\r\n        uint repTokensBalance = rep.balanceOf(msg.sender);\r\n        if(repTokensBalance == 0){\r\n           repTokensBalance = 1;\r\n        }\r\n        uint ratio = transactionCount/repTokensBalance;\r\n        require(ratio<=2,\"Reputation Balance Low!\");\r\n        uint remainingValue = projects[msg.sender][index].donatedValue - projects[msg.sender][index].spentAmount;\r\n        // uint amtInEther = amount / (10**18);\r\n        uint amtInEther = amount;\r\n        require(remainingValue > amtInEther,\"Invalid Withdrawal Amount\");\r\n        // msg.sender.transfer(amount);\r\n        msg.sender.transfer(amount*(10**18));\r\n        // amount = amount / (10**18);\r\n        \r\n        //Add transaction details\r\n        uint transactionSize = projects[msg.sender][index].transactionSize;\r\n        Transaction memory t = Transaction(projects[msg.sender][index],purpose,amount,\"\",msg.sender,index,false,transactionSize);\r\n        projects[msg.sender][index].transactions[transactionSize] = t;\r\n        projects[msg.sender][index].transactionSize++;\r\n        overallTransactionCount[msg.sender]++;\r\n        projects[msg.sender][index].spentAmount = projects[msg.sender][index].spentAmount + amount;\r\n    }\r\n    function checkLimit(uint donatedAmt, address admin, uint index) public view returns (bool isLimitReached){\r\n        uint currentDonated = projects[admin][index].donatedValue;\r\n        uint limit = projects[admin][index].limit;\r\n        if(currentDonated+ donatedAmt < limit){\r\n            return true;\r\n        }else{\r\n            return false;\r\n        }\r\n        \r\n    }\r\n    function viewReputationTokenBalance() public view returns(uint){\r\n        return rep.checkBalance();\r\n    }\r\n    function donatedAmount(uint donatedAmt, address admin, uint index) public {\r\n        projects[admin][index].donatedValue = projects[admin][index].donatedValue + donatedAmt;\r\n        projects[admin][index].balance = projects[admin][index].limit - projects[admin][index].donatedValue;\r\n    }\r\n    \r\n    function viewDonatedAmount(address admin, uint index)public view returns(uint value){\r\n        return projects[admin][index].donatedValue;\r\n    }\r\n    function viewSpentAmount(address admin, uint index)public view returns(uint value){\r\n        return projects[admin][index].spentAmount;\r\n    }\r\n    function makeTransactionValid(address admin, uint index, uint transactionIndex)public{\r\n        projects[admin][index].transactions[transactionIndex].verified = true;\r\n    }\r\n    event ViewAllTransactions(string[]  _purpose, uint[]  _value,string[]  _proofLink,address _admin,bool[] _verified, uint[]  _transactionIndex);\r\n    function viewAllTransactionsForProject(address admin, uint index)public{\r\n        uint length = projects[admin][index].transactionSize;\r\n        string[] memory purpose = new string[](length);\r\n        uint[] memory value = new uint[](length);\r\n        string[] memory proofLink = new string[](length);\r\n        bool[] memory verified = new bool[](length);\r\n        uint[]  memory transactionIndex = new uint[](length);\r\n        for(uint i=0;i<length;i++){\r\n            purpose[i] = projects[admin][index].transactions[i].purpose;\r\n            value[i] = projects[admin][index].transactions[i].value;\r\n            proofLink[i] = projects[admin][index].transactions[i].proofLink;\r\n            verified[i] = projects[admin][index].transactions[i].verified;\r\n            transactionIndex[i] = projects[admin][index].transactions[i].transactionIndex;\r\n        }\r\n        emit ViewAllTransactions(purpose,value,proofLink,admin,verified,transactionIndex);\r\n    }\r\n    function viewSingleTransaction(address admin, uint index, uint tindex) public view returns (string memory purpose,uint value, string memory proofLink,bool verified) {\r\n        Transaction memory temp = projects[admin][index].transactions[tindex];\r\n        return(temp.purpose,temp.value, temp.proofLink,temp.verified);\r\n    }\r\n}",
  "sourcePath": "C:\\Users\\Tejas\\Downloads\\HelpAnybody-Ethereum-CrowdFunding-main 2\\contracts\\ProjectCreator.sol",
  "compiler": {
    "name": "solc",
    "version": "0.6.6+commit.6c089d02.Emscripten.clang"
  },
  "schemaVersion": "3.2.5",
  "updatedAt": "2021-04-29T04:39:32.089Z",
  "networkType": "ethereum",
  "devdoc": {
    "methods": {}
  },
  "userdoc": {
    "methods": {}
  }
}